:1000000009C021C020C078C01EC01DC01CC01BC0BC
:100010001AC01AC011241FBECFE9CDBF10E0A0E660
:10002000B0E0E6ECF1E002C005900D92A036B10719
:10003000D9F710E0A0E6B0E001C01D92A436B107E8
:10004000E1F7A4D0BEC0DCCF1F920F920FB60F9283
:1000500011248F939F9387B18370823009F187B108
:100060008370833099F187B190E083709070892B11
:1000700079F485B19091630086958695890F969560
:100080009695891B8093630087B18C7F826087B9C6
:10009000369A9F918F910F900FBE0F901F901895D9
:1000A00085B19091610086958695890F9695969574
:1000B000891B8093610087B1836087B9369A9F91CD
:1000C0008F910F900FBE0F901F90189585B1909152
:1000D000620086958695890F96959695891B8093E3
:1000E000620087B18C7F87B9369A9F918F910F906C
:1000F0000FBE0F901F9018951F920F920FB60F9280
:1001000011248F939F9390916000913099F09230D9
:1001100009F1933031F1943069F1953039F196302D
:1001200069F1993069F4C09A80916100819582BF2C
:1001300090E006C0C098C19A80916200819582BF0C
:100140009F5F909360009F918F910F900FBE0F90D3
:100150001F901895C198C29A80916300819582BFC3
:10016000EFCFC2988091610082BFEACF8091630097
:1001700082BFE6CF8091620082BFE2CF8EE182BF74
:10018000DFCF399A3D9A8CED86B90895F89487E0CF
:1001900087BB83B7826083BF83B7816083BF89B722
:1001A000826089BF399A3D9A8CED86B978948EE643
:1001B000809361008CE38093620080EA8093630007
:0601C000FFCFF894FFCF11
:00000001FF
