:100000000C945B000C9483000C9483000C9483008C
:100010000C9483000C9483000C9483000C94830054
:100020000C9483000C9483000C9483000C94830044
:100030000C9483000C9483000C9483000C94830034
:100040000C945B040C9483000C9483000C94830048
:100050000C9483000C9483000C9483000C94830014
:100060000C9483000C948300000024272A000025B0
:10007000282B000023262904040404040404040299
:100080000202020202030303030303010204081035
:100090002040800102040810200102040810200002
:1000A0000000070002010000030406000000000039
:1000B00000000000420211241FBECFEFD4E0DEBFDB
:1000C000CDBF11E0A0E0B1E0E0E9FCE002C00590A6
:1000D0000D92AE33B107D9F711E0AEE3B1E001C044
:1000E0001D92AA38B107E1F710E0C6EBD0E004C0DA
:1000F0002297FE010E944306C43BD107C9F70E9424
:1001000050040C9447060C940000FC0110828FEF01
:1001100081831382128282E2848386E98583178237
:1001200016820895FC0110828FEF81831382128260
:1001300082E2848386E9858317821682089524E00B
:10014000769567952A95E1F7FC016483089534E07C
:10015000769567953A95E1F7FC0165830895AEE3DE
:10016000B1E00CC0E817F90739F4868197818D93C7
:100170009C93178216820895DF011696ED91FC91EB
:100180001197309779F70895EF92FF920F931F938D
:10019000CF93DF93EC019B0177FF03C020E030E0B9
:1001A00005C0653B710514F024EB30E02983EC8039
:1001B0006D8177276E197109882777FD8095982FB3
:1001C000982F872F762F66273327442755270E949D
:1001D000BE0524EB30E040E050E00E941206FF2410
:1001E00000271127102F0F2DFE2CEE24E20EF31EF8
:1001F000041F151FC801B70120E430E040E050E0C3
:100200000E9412063B832A83DF91CF911F910F91A9
:10021000FF90EF900895FC01818199270895E09166
:100220003E01F0913F0109C0E817F90719F481E098
:1002300090E008950680F781E02D3097A9F780E0DF
:1002400090E008956F927F929F92AF92BF92CF926B
:10025000DF92EF92FF920F931F93CF93DF93CDB76F
:10026000DEB76DB67EB60E948004209140013091C9
:100270004101409142015091430162177307840785
:10028000950750F02C5E3F4F4F4F5F4F621773073B
:100290008407950708F4AEC0609340017093410154
:1002A0008093420190934301E0913E01F0913F0120
:1002B000992408C082819381892B09F09394068048
:1002C000F781E02D3097B1F7992009F493C0892D7B
:1002D0009927880F991F2DB73EB7281B390B0FB6EA
:1002E000F8943EBF0FBE2DBFCDB6DEB60894C11C3C
:1002F000D11CA0913E01B0913F0120E011C0FD0151
:1003000082819381892B49F0E22FFF27EE0FFF1F97
:10031000EC0DFD1DB183A0832F5FFD01A681B78188
:10032000109769F729C0812F9927DC01AA0FBB1FFD
:10033000AC0DBD1D6D917C9111977C010894E10875
:10034000F108EE0CFF1CEC0CFD1CF7014081518103
:10035000FB0122813381FA018281938128173907B9
:1003600030F44D935C93F7017183608301E01F5F6C
:100370001915C8F2002319F011E000E0F9CF10E0E0
:10038000E12FFF27EE0FFF1FEC0DFD1D0190F08107
:10039000E02D61E080810E9473051F5F191581F7D0
:1003A00046B500E0EE24FF24A42EBB2421C0E02F9C
:1003B000FF27EE0FFF1FEC0DFD1D0190F081E02DDA
:1003C000228133812A0D3B1D16B5141720F480E0DD
:1003D00091E0E80EF91E412FC701810F911D2817EA
:1003E000390790F760E080810E9473050F5F412F0D
:1003F0000915E9F60FB6F8947EBE0FBE6DBEDF910B
:10040000CF911F910F91FF90EF90DF90CF90BF9011
:10041000AF909F907F906F9008950F931F938C01E2
:10042000CB01F80160832FEF218313821282209188
:100430003E0130913F013783268310933F010093A3
:100440003E0160E00E94730561E0F80180810E9436
:10045000090581E090E01F910F910895CF93DF93FC
:10046000019769F46F5F7F4F51F4C4E4D1E0CE018E
:100470000E949200289681E0C437D807C1F7DF9127
:10048000CF9108956FEF7FEF81E090E00E942E0200
:1004900008950F931F93CF93DF9364E170E00E9460
:1004A000DD058B01C0E0D0E009C064E170E080E0D0
:1004B00090E00E9498040E9422012196C017D10763
:1004C000A4F3DF91CF911F910F910895EF92FF92C6
:1004D0000F931F937B018C01000F111FF801E05057
:1004E000FF4F608171816E0D7F1D665A7F4F23E043
:1004F000880F991F2A95E1F78C5B9E4F0E94C400DC
:100500000C581E4FF801F182E0826AE070E080E052
:1005100090E00E9498041F910F91FF90EF90089532
:100520006F927F928F929F92AF92BF92CF92DF9203
:10053000EF92FF920F931F93CF93DF93C0917401BB
:10054000D09175010091780110917901FC013196EB
:10055000EE0FFF1FDF01A05DBE4FAD90BC90EA5CC7
:10056000FE4FC080D180AC16BD0624F466246A9488
:10057000762C03C061E0662E712CC016D10624F4DF
:1005800088248A94982C03C051E0852E912C2091C8
:100590003C0130913D01C90101978A0D9B1D8C17CB
:1005A0009D075CF0C501821B930B0196C817D90704
:1005B00024F041E0E42EF12C10C0629EC001639E45
:1005C000900D729E900D1124C80FD91FBE0180E0BE
:1005D00090E00E946602EE24FF2420913C013091BD
:1005E0003D01C90101978C0D9D1D801791073CF0BD
:1005F000C601821B930B01960817190784F4829E8B
:10060000C001839E900D929E900D1124080F191F1A
:10061000B80182E090E00E946602EE24FF24C091BF
:100620007401D091750100917801109179010E94B7
:100630002201EF2809F4ABCFDF91CF911F910F91E9
:10064000FF90EF90DF90CF90BF90AF909F908F90F2
:100650007F906F9008952F923F924F925F926F928A
:100660007F928F929F92AF92BF92CF92DF92EF9242
:10067000FF920F931F93CF93DF93CDB7DEB72697EB
:100680000FB6F894DEBF0FBECDBF2091760130913A
:1006900077013E832D8300917A0110917B010196B1
:1006A000FC01EE0FFF1FDF01A85EBE4FAD90BC90B6
:1006B000E25EFE4FC080D180A216B3062CF44FEF4D
:1006C0005FEF5C834B8304C0E1E0F0E0FC83EB83ED
:1006D000C016D1062CF42FEF3FEF3A83298304C0D4
:1006E00041E050E05A834983880F991FA4E22A2EE3
:1006F000A1E03A2E280E391E25010894411C511CF8
:10070000FAE26F2EF1E07F2E680E791E4601089402
:10071000811C911CF10120813181C501820F931F41
:1007200001974D815E818417950754F0C201821BA9
:10073000930B4817590724F0E1E0EE2EF12C16C078
:10074000EB81FC81E29FC001E39F900DF29F900D31
:1007500011242D813E81280F391F3E832D83B9013D
:1007600081E090E00E946602EE24FF24F3012081E4
:100770003181C601820F931F01978017910734F0D2
:10078000C401821B930B0817190794F449815A81FD
:10079000429FC001439F900D529F900D1124080F5E
:1007A000191FB80183E090E00E946602EE24FF2446
:1007B00080917601909177019E838D8300917A01DB
:1007C00010917B010E942201EF2809F4A3CF269605
:1007D0000FB6F894DEBF0FBECDBFDF91CF911F9152
:1007E0000F91FF90EF90DF90CF90BF90AF909F90D0
:1007F0008F907F906F905F904F903F902F900895D3
:100800008FEF9FEF0E942B038FEF9FEF0E949002CC
:1008100080E090E00E942B0381E090E00E942B0397
:1008200081E090E00E94900280E090E00E942B0323
:1008300008950F931F93CF93DF930CE011E0C0E076
:10084000D0E060E070E0CE010E946602F8016191A4
:1008500071918F01CE0153E0880F991F5A95E1F7EE
:100860008C5B9E4F0E940D0260E070E0CE010E9402
:1008700066022196C630D10521F7C0E0D0E00E9483
:10088000220162E370E080E090E00E9498042196EB
:10089000C233D105A1F7DF91CF911F910F91089538
:1008A000CFEFD4E0DEBFCDBF0E94C7040E94190481
:1008B0000E940004FDCF1F920F920FB60F921124D9
:1008C0008F939F93AF93BF938091860190918701FF
:1008D000A0918801B09189010196A11DB11D80935D
:1008E000860190938701A0938801B0938901BF91FD
:1008F000AF919F918F910F900FBE0F901F90189501
:1009000060918601709187018091880190918901A1
:1009100027E0660F771F881F991F2A95D1F72DE7CB
:1009200030E040E050E00E94F005CA01B9010895AE
:10093000AF92BF92CF92DF92EF92FF920F931F93ED
:100940005B016C010E9480047B018C010E94800489
:100950006E197F09800B910B6A157B058C059D052F
:10096000A8F31F910F91FF90EF90DF90CF90BF9071
:10097000AF900895019751F0880F991F880F991F24
:1009800002972FB7F8940197F1F72FBF0895789445
:1009900010928601109287011092880110928901AD
:1009A00084B5826084BD84B5816084BD85B5826074
:1009B00085BD85B5816085BDEEE6F0E08081816012
:1009C0008083E1E8F0E080818260808380818160C3
:1009D0008083E0E8F0E0808181608083E1EBF0E0FB
:1009E000808184608083E0EBF0E08081816080839F
:1009F000EAE7F0E080818460808380818260808388
:100A00008081816080838081806880831092C100B2
:100A10000895282F3327C90185579F4FFC019491D2
:100A200029583F4FF9018491882381F0E82FFF274F
:100A3000E859FF4FE491FF27662329F480819095C0
:100A40008923808308958081892B80830895482F8E
:100A50005527CA0181569F4FFC012491CA01855731
:100A60009F4FFC01949149585F4FFA013491332311
:100A700019F480E090E00895222331F1233021F42D
:100A8000809180008F7705C0243031F48091800000
:100A90008F7D8093800018C0213019F484B58F7742
:100AA00004C0223021F484B58F7D84BD0DC0263072
:100AB00021F48091B0008F7705C0273029F4809110
:100AC000B0008F7D8093B000E32FFF27EE58FF4FDB
:100AD000E491FF27808120E030E0892311F021E0BC
:100AE00030E0C9010895482F5527CA0181569F4F0C
:100AF000FC012491CA0185579F4FFC0194914958EC
:100B00005F4FFA0134913323C1F1222331F12330B5
:100B100021F4809180008F7705C0243031F48091DA
:100B200080008F7D8093800018C0213019F484B537
:100B30008F7704C0223021F484B58F7D84BD0DC031
:100B4000263021F48091B0008F7705C0273029F43A
:100B50008091B0008F7D8093B000E32FFF27E35991
:100B6000FF4FE491FF27662329F480819095892324
:100B7000808308958081892B80830895629FD001AE
:100B8000739FF001829FE00DF11D649FE00DF11D48
:100B9000929FF00D839FF00D749FF00D659FF00DF7
:100BA0009927729FB00DE11DF91F639FB00DE11DE4
:100BB000F91FBD01CF011124089597FB092E0726C7
:100BC0000AD077FD04D049D006D000201AF47095E1
:100BD00061957F4F0895F6F7909581959F4F089501
:100BE000A1E21A2EAA1BBB1BFD010DC0AA1FBB1F31
:100BF000EE1FFF1FA217B307E407F50720F0A21BA3
:100C0000B30BE40BF50B661F771F881F991F1A940F
:100C100069F760957095809590959B01AC01BD0139
:100C2000CF01089597FB092E05260ED057FD04D05D
:100C3000D7DF0AD0001C38F45095409530952195A7
:100C40003F4F4F4F5F4F0895F6F790958095709501
:100C500061957F4F8F4F9F4F0895AA1BBB1B51E19A
:100C600007C0AA1FBB1FA617B70710F0A61BB70B1C
:100C7000881F991F5A95A9F780959095BC01CD01C1
:100C80000895EE0FFF1F0590F491E02D0994FFCF1A
:100C9000FDFFFBFFFDFF0B00000000000200030052
:100CA0000400050006000700E7FF00002D00D3FF49
:100CB0000000190001000100020002000100010013
:0E0CC0000F000000F1FF0F000000F1FF010027
:00000001FF
